:020000040800F2
:10000000000002204D3101089D3101089D31010899
:100010009D3101089D3101089D310108000000005B
:100020000000000000000000000000009D310108F9
:100030009D310108000000009D310108FBFA000815
:100040009D3101089D3101089D3101089D31010854
:100050009D3101089D31010865FD00086BFD000818
:1000600071FD000877FD00087DFD00089D31010845
:100070009D3101089D3101089D3101089D31010824
:100080009D3101089D3101089D310108317700083B
:10009000097700089D3101089D31010883FD0008A2
:1000A0003DEA000855E9000851EA000879E900082E
:1000B0008DE90008A1E90008B5E90008396B0008DE
:1000C000456B0008516B00085D6B00089D3101080D
:1000D0009D310108D10B0108E90B0108050C01084D
:1000E000ABFD00089D3101089118010865EA000880
:1000F00005EA000879EA000829EA00089D310108AC
:100100009D3101089D310108C9E900089D310108B0
:10011000210C0108390C0108DDE90008F1E90008AB
:100120009D3101089D3101089D3101089D31010873
:100130009D3101089D3101089D3101083577000886
:100140001D7700089D3101089D31010885180108BF
:100150009D3101089D3101089D310108510C0108B4
:10016000696B0008756B00089D3101089D3101081D
:100170009D3101089D3101089D31010800000000FA
:080180009D3101089D310108C9
:1001900010F8012B11F8013B012A28BF9A42F7D031
:1001A000D01A7047034613F8012B002AFBD1181A06
:1001B000013870470000000000000000000000004F
:1001C00001F0FF01102A2BDB10F0070F08D010F808
:1001D000013B013A8B422DD010F0070F42B3F6D10C
:1001E000F0B441EA012141EA014122F007047FF025
:1001F00000070023F0E80256083C85EA010586EA7C
:10020000010685FA47F5A3FA87F586FA47F6A5FAB7
:1002100087F68EB9EED1F0BC01F0FF0102F00702C3
:1002200032B110F8013B013A83EA010313B1F8D16E
:100230000020704701387047002D06BF354603384F
:10024000073815F0010F07D1013015F4807F02BF88
:10025000013015F4C03F0130F0BC0138704700BFD9
:1002600081F0004102E000BF83F0004330B54FEA67
:1002700041044FEA430594EA050F08BF90EA020FD4
:100280001FBF54EA000C55EA020C7FEA645C7FEA67
:10029000655C00F0E2804FEA5454D4EB5555B8BF8A
:1002A0006D420CDD2C4480EA020281EA030382EAFB
:1002B000000083EA010180EA020281EA0303362D8D
:1002C00088BF30BD11F0004F4FEA01314FF4801C60
:1002D0004CEA113102D0404261EB410113F0004F72
:1002E0004FEA03334CEA133302D0524263EB430329
:1002F00094EA050F00F0A780A4F10104D5F1200EC7
:100300000DDB02FA0EFC22FA05F2801841F1000121
:1003100003FA0EF2801843FA05F359410EE0A5F1F5
:1003200020050EF1200E012A03FA0EFC28BF4CF026
:10033000020C43FA05F3C01851EBE37101F00045DC
:1003400007D54FF0000EDCF1000C7EEB00006EEBE9
:100350000101B1F5801F1BD3B1F5001F0CD3490873
:100360005FEA30004FEA3C0C04F101044FEA4452CA
:1003700012F5800F80F09A80BCF1004F08BF5FEA51
:10038000500C50F1000041EB045141EA050130BD31
:100390005FEA4C0C404141EB0101013C28BFB1F543
:1003A000801FE9D291F0000F04BF01460020B1FA8E
:1003B00081F308BF2033A3F10B03B3F120020CDA61
:1003C0000C3208DD02F1140CC2F10C0201FA0CF03F
:1003D00021FA02F10CE002F11402D8BFC2F1200CA4
:1003E00001FA02F120FA0CFCDCBF41EA0C0190405A
:1003F000E41AA2BF01EB0451294330BD6FEA0404A3
:100400001F3C1CDA0C340EDC04F11404C4F120028D
:1004100020FA04F001FA02F340EA030021FA04F39F
:1004200045EA030130BDC4F10C04C4F1200220FAF6
:1004300002F001FA04F340EA0300294630BD21FA34
:1004400004F0294630BD94F0000F83F4801306BFFA
:1004500081F480110134013D4EE77FEA645C18BFEE
:100460007FEA655C29D094EA050F08BF90EA020F85
:1004700005D054EA000C04BF1946104630BD91EA7D
:10048000030F1EBF0021002030BD5FEA545C05D180
:100490004000494128BF41F0004130BD14F58004BF
:1004A0003CBF01F5801130BD01F0004545F0FE4133
:1004B00041F470014FF0000030BD7FEA645C1ABF68
:1004C000194610467FEA655C1CBF0B46024650EA9F
:1004D000013406BF52EA033591EA030F41F40021CB
:1004E00030BD00BF90F0000F04BF0021704730B551
:1004F0004FF4806404F132044FF000054FF0000126
:1005000050E700BF90F0000F04BF0021704730B5E6
:100510004FF4806404F1320410F0004548BF4042BB
:100520004FF000013EE700BF42004FEAE2014FEA10
:1005300031014FEA02701FBF12F07F4393F07F4FEB
:1005400081F06051704732F07F4208BF704793F0EE
:100550007F4F04BF41F40021704730B54FF4607401
:1005600001F0004521F000411CE700BF50EA010204
:1005700008BF704730B54FF000050AE050EA0102AD
:1005800008BF704730B511F0004502D5404261EB1D
:1005900041014FF4806404F132045FEA915C3FF45E
:1005A000D8AE4FF003025FEADC0C18BF03325FEAFB
:1005B000DC0C18BF033202EBDC02C2F1200300FAAC
:1005C00003FC20FA02F001FA03FE40EA0E0021FAD1
:1005D00002F11444BDE600BF70B54FF0FF0C4CF4BF
:1005E000E06C1CEA11541DBF1CEA135594EA0C0F71
:1005F00095EA0C0F00F0DEF82C4481EA030621EAAC
:100600004C5123EA4C5350EA013518BF52EA0335E6
:1006100041F4801143F4801338D0A0FB02CE4FF098
:100620000005E1FB02E506F00042E0FB03E54FF0C8
:100630000006E1FB03569CF0000F18BF4EF0010EC0
:10064000A4F1FF04B6F5007F64F5407404D25FEABC
:100650004E0E6D4146EB060642EAC62141EA55516F
:100660004FEAC52040EA5E504FEACE2EB4F1FD0CB1
:1006700088BFBCF5E06F1ED8BEF1004F08BF5FEA2F
:10068000500E50F1000041EB045170BD06F00046E1
:1006900046EA010140EA020081EA0301B4EB5C048E
:1006A000C2BFD4EB0C0541EA045170BD41F4801186
:1006B0004FF0000E013C00F3AB8014F1360FDEBFAB
:1006C000002001F0004170BDC4F10004203C35DA87
:1006D0000C341BDC04F11404C4F1200500FA05F30A
:1006E00020FA04F001FA05F240EA020001F00042AB
:1006F00021F0004110EBD37021FA04F642EB060121
:100700005EEA430E08BF20EAD37070BDC4F10C044A
:10071000C4F1200500FA04F320FA05F001FA04F20E
:1007200040EA020001F0004110EBD37041F10001FA
:100730005EEA430E08BF20EAD37070BDC4F1200505
:1007400000FA05F24EEA020E20FA04F301FA05F26D
:1007500043EA020321FA04F001F0004121FA04F215
:1007600020EA020000EBD3705EEA430E08BF20EAE5
:10077000D37070BD94F0000F0FD101F0004640001F
:1007800041EB010111F4801F08BF013CF7D041EAA1
:10079000060195F0000F18BF704703F000465200A5
:1007A00043EB030313F4801F08BF013DF7D043EA76
:1007B0000603704794EA0C0F0CEA135518BF95EA2C
:1007C0000C0F0CD050EA410618BF52EA4306D1D1B3
:1007D00081EA030101F000414FF0000070BD50EAD2
:1007E000410606BF1046194652EA430619D094EA5C
:1007F0000C0F02D150EA013613D195EA0C0F05D146
:1008000052EA03361CBF104619460AD181EA030199
:1008100001F0004141F0FE4141F470014FF0000051
:1008200070BD41F0FE4141F4780170BD70B54FF0EC
:10083000FF0C4CF4E06C1CEA11541DBF1CEA13556C
:1008400094EA0C0F95EA0C0F00F0A7F8A4EB05044E
:1008500081EA030E52EA03354FEA013100F0888045
:100860004FEA03334FF0805545EA131343EA12630E
:100870004FEA022245EA111545EA10654FEA0026C3
:100880000EF000419D4208BF964244F1FD0404F57C
:10089000407402D25B084FEA3202B61A65EB0305D8
:1008A0005B084FEA32024FF480104FF4002CB6EB95
:1008B000020E75EB030E22BFB61A754640EA0C0015
:1008C0005B084FEA3202B6EB020E75EB030E22BF55
:1008D000B61A754640EA5C005B084FEA3202B6EB96
:1008E000020E75EB030E22BFB61A754640EA9C0055
:1008F0005B084FEA3202B6EB020E75EB030E22BF25
:10090000B61A754640EADC0055EA060E18D04FEAE2
:10091000051545EA16754FEA06164FEAC30343EA82
:1009200052734FEAC2025FEA1C1CC0D111F4801F4F
:100930000BD141EA00014FF000004FF0004CB6E748
:1009400011F4801F04BF01430020B4F1FD0C88BFE7
:10095000BCF5E06F3FF6AFAEB5EB030C04BFB6EBF2
:10096000020C5FEA500C50F1000041EB045170BDE5
:100970000EF0004E4EEA113114EB5C04C2BFD4EB12
:100980000C0541EA045170BD41F480114FF0000E96
:10099000013C90E645EA060E8DE60CEA135594EA12
:1009A0000C0F08BF95EA0C0F3FF43BAF94EA0C0F15
:1009B0000AD150EA01347FF434AF95EA0C0F7FF48A
:1009C00025AF104619462CE795EA0C0F06D152EADE
:1009D00003353FF4FDAE1046194622E750EA4106C2
:1009E00018BF52EA43067FF4C5AE50EA41047FF4D3
:1009F0000DAF52EA43057FF4EBAE12E74FF0FF3C38
:100A000006E000BF4FF0010C02E000BF4FF0010C08
:100A10004DF804CD4FEA410C7FEA6C5C4FEA430C81
:100A200018BF7FEA6C5C1BD001B050EA410C0CBFD0
:100A300052EA430C91EA030F02BF90EA020F002032
:100A4000704710F1000F91EA030F58BF994208BF99
:100A500090422CBFD8176FEAE37040F00100704756
:100A60004FEA410C7FEA6C5C02D150EA013C07D1AD
:100A70004FEA430C7FEA6C5CD6D152EA033CD3D0F8
:100A80005DF8040B704700BF8446104662468C46F2
:100A90001946634600E000BF01B5FFF7B7FF002825
:100AA00048BF10F1000F01BD4DF808EDFFF7F4FF4E
:100AB0000CBF012000205DF808FB00BF4DF808EDD9
:100AC000FFF7EAFF34BF012000205DF808FB00BFFC
:100AD0004DF808EDFFF7E0FF94BF012000205DF81E
:100AE00008FB00BF4DF808EDFFF7CEFF94BF0120D3
:100AF00000205DF808FB00BF4DF808EDFFF7C4FFCC
:100B000034BF012000205DF808FB00BF4FEA41021E
:100B100012F5001215D211D56FF47873B3EB62524F
:100B200012D94FEAC12343F0004343EA505311F076
:100B3000004F23FA02F018BF404270474FF0000008
:100B4000704750EA013005D111F0004008BF6FF046
:100B5000004070474FF00000704700BF4A0011D2BC
:100B600012F5001211D20DD56FF47873B3EB625207
:100B70000ED44FEAC12343F0004343EA505323FA13
:100B800002F070474FF00000704750EA013002D188
:100B90004FF0FF3070474FF0000070474FEA4102BE
:100BA000B2F1E04324BFB3F5001CDCF1FE5C0DD9CB
:100BB00001F0004C4FEAC0024CEA5070B2F1004F15
:100BC00040EB830008BF20F00100704711F0804F18
:100BD00021D113F13872BCBF01F00040704741F4DD
:100BE00080114FEA5252C2F11802C2F1200C10FAE1
:100BF0000CF320FA02F018BF40F001004FEAC123C5
:100C00004FEAD32303FA0CFC40EA0C0023FA02F368
:100C10004FEA4303CCE77FEA625307D150EA01333E
:100C20001EBF4FF0FE4040F44000704701F000400E
:100C300040F0FE4040F40000704700BF53B94AB98D
:100C4000002908BF00281CBF4FF0FF314FF0FF30D4
:100C500000F00CB8ADF1080C6DE904CE16F03CFCC8
:100C6000DDF804E0DDE9022304B07047704700BFFF
:100C700010B5054C237833B9044B13B10448AFF3D6
:100C800000800123237010BD180700200000000021
:100C9000D877010808B5034B1BB103490348AFF3EC
:100CA000008008BD000000001C070020D877010864
:100CB000B0F5787F10B56ED022D840F2013398425B
:100CC00030D0A0F55870092800D910BD0928FCD8EB
:100CD00001A353F820F000BF330D0008530D0008A6
:100CE000690D0008CB0C0008CB0C0008CB0C0008E9
:100CF000CB0C0008CB0C00087F0D00088B0D000802
:100D000040F2E13398425BD0A0F58E63032BDCD830
:100D10006FF48E6318444B4B02285CD8DFE800F078
:100D200060656A00474B484A1B885BBA9BB21360F8
:100D3000CBE7444A454913885BBA9BB20B605388A2
:100D400043495BBA9BB20B609388424A5BBA9BB241
:100D5000EDE73C4A404913885BBA9BB20B6053886D
:100D60003E4A5BBA9BB2E2E7364A3D4913885BBA1A
:100D70009BB20B6093883B4A5BBA9BB2D7E7314B7F
:100D8000394A1B885BBA9BB2D1E72E4B374A1B8886
:100D90005BBA9BB2CBE72B4A354913885BBA9BB24F
:100DA0000B60538833495BBA9BB20B60938832491E
:100DB0005BBA9BB20B60D388304A5BBA9BB2B6E792
:100DC000204A2F4913885BBA9BB20B6093882D4A47
:100DD0005BBA9BB2ABE71B882B4A5BBA9BB2A6E718
:100DE0001B882A4A5BBA9BB2A1E71B88284A5BBAD8
:100DF0009BB29CE71988244B24481B680068002B91
:100E0000D6BF0022012213460028C8BF1B18204865
:100E10000468204849BAC8BF0132002C89B208DDF5
:100E20002344013231B9B3FBF2F30A225343036086
:100E30004BE711B10B440132F5E7002AF3D1026010
:100E400043E700BF4F0700207C070020C4070020B5
:100E5000C0070020BC070020B8070020B40700200E
:100E6000B0070020AC070020A8070020A40700203E
:100E7000A00700209C07002098070020940700206E
:100E8000900700208C070020400700203C0700202E
:100E90003807002080070020A0F2EC5008B5082891
:100EA0002FD8DFE800F03E2E2E2E050D2F333A000E
:100EB000214B224A198811605A88214B1A6020E080
:100EC0001D4B1888FFF71EFB1E4B0022FFF7AEFCE0
:100ED0001D4B0022FFF7C8F91C4B0022FFF77CFBDB
:100EE0001B4B0022FFF7A2FC11A3D3E90023FFF75D
:100EF000BDF9144B0022FFF76FFBFFF707FE154B00
:100F0000186008BD0C4B1A88134BD7E70A4B1B8897
:100F100064225343114A1360F3E7074B1A88104BBE
:100F2000CCE7054B1B880A2253430E4AF3E700BF68
:100F300066666666661271404F070020C007002093
:100F4000C40700200000244000004040000014407E
:100F500000002240A0070020BC070020A8070020B6
:100F6000A407002080070020B038032810D8DFE84D
:100F700000F002101D321B4A1B4913885BBA9BB25A
:100F80000B6053885BBA0A229BB25343174A136023
:100F90007047144A164913885BBA9BB203F6AB2319
:100FA0000B605388134A5BBA9BB2F0E70D491248B5
:100FB0000B885BBA0A229BB2B3FBF2F303604B8847
:100FC0000E485BBA9BB2534303608B885BBA9BB2FB
:100FD00053430B4ADBE7034B0A4A1B885BBA9BB2BD
:100FE000D5E700BF4F070020C4070020800700207E
:100FF000A007002094070020C0070020B4070020AD
:10100000B8070020A8070020A0F5FD60072810B54C
:1010100017D8274B5A78412A13D19A78254C0D2A94
:101020000BD8042A0BD9053A082A08D8DFE802F0C1
:101030001807070707071F0A1200242A1DD00023DC
:10104000237010BDB3F803301B4A5BBAC3F38D03A2
:101050001360F4E7DB78642213FB02F3174AF7E727
:10106000DB78174AE93303EB83035B00F0E7DB78B7
:10107000144A03EB83035B00EAE7B3F8030040BACA
:1010800080B2FFF72FFA08A3D3E90023FFF7A4FAF1
:101090000D4B0022FFF7A0FAFFF738FD0B4B18604D
:1010A000CDE700BFAFF30080D5CC5A0A48FBFF3E26
:1010B0004F070020C9070020C40700208007002038
:1010C000A0070020C007002000408F40A807002094
:1010D000084B1B78032B0BD8DFE803F0020406084B
:1010E000FFF7E6BDFFF7D8BEFFF73EBFFFF78CBFA7
:1010F000704700BF4407002070B50F4D06460FCD66
:1011000086B06C460FC495E8030040F2DF7384E8B4
:101110000300009300224FF4817369460748ADF83D
:101120000C308DF80E6006F093F9054B01221A7011
:10113000044B1E7006B070BDF07701084C0B002008
:10114000C9070020C807002037B5164B0193164B7E
:101150001B7823BB154D12F029F92B68C01A6328A0
:101160000FD9134C237808336B4413F8040CFFF7A2
:10117000C3FF2378013303F00303237012F016F941
:1011800028600C4C12F012F92368C01AB0F57A7F6F
:1011900005D30520FFF7B0FF12F008F9206003B077
:1011A00030BD00BF0D0C240BC9070020D007002064
:1011B00034070020CC0700207047012A02D10160CB
:1011C00000207047022A05D0032AF9D0002AF7D15F
:1011D0000260F5E70B680360F2E70368184783686D
:1011E00010B5044613B1032201469847204610BDAE
:1011F0004FF0011337B50446436103F03CFE20462F
:10120000022104F028FF0B4B23610B49204611F00B
:1012100013FD202201212368CDE900210022DD6C8D
:10122000204680231146A847204603B0BDE8304041
:1012300004F0BCB9140008005478010810B54FF050
:1012400001130446436103F016FE2046022104F018
:1012500002FF054B23612046044911F0EDFC2046B6
:10126000BDE8104004F0A2B90F0008005D78010845
:1012700010B54FF001130446436103F0FCFD204616
:10128000022104F0E8FE054B23612046044911F0D9
:10129000D3FC2046BDE8104004F088B920000800C7
:1012A0006778010810B54FF001130446436103F05D
:1012B000E2FD2046022104F0CEFE4FF4102323610C
:1012C0002046044911F0B8FC2046BDE8104004F067
:1012D0006DB900BF6D7801084FF0011310B50446D9
:1012E000436103F0C8FD0E4B23612046032104F047
:1012F000B2FE0C4B012193ED000A204611F0A0FD37
:10130000094B23612046022104F0A5FE204607492F
:1013100011F092FC2046BDE8104004F047B900BF30
:1013200008000600CC00002058000A007778010869
:101330001FB5044603F09FFD20230122CDE90132B1
:101340000022802300932046044B114604F051FCF8
:10135000204604B0BDE8104004F028B9B08401086C
:101360001FB5044603F087FD20230122CDE9013299
:101370000022802300932046044B114604F039FCE0
:10138000204604B0BDE8104004F010B9B082010856
:101390001FB5044603F06FFD20230122CDE9013281
:1013A0000022802300932046044B114604F021FCC8
:1013B000204604B0BDE8104004F0F8B8B080010841
:1013C00030B54FF0011385B043610446012503F0A9
:1013D00052FD20230022CDE901352323114600933D
:1013E0002046104B04F005FC2046032104F033FE98
:1013F0000D4B23610D4B294693ED000A204611F059
:1014000024FD2046022104F026FE094B09492361F0
:10141000204611F011FC204605B0BDE8304004F034
:10142000C5B800BFD07E01082A000600E4000020F5
:1014300074000C00977A010838B54FF001132DEDB8
:10144000028B4361044603F016FD374B374D93ED95
:10145000008A374B1B78002B43D10221256120469F
:1014600004F0F9FD3349204611F0E6FB324B2361CD
:101470000221204604F0EFFDF2EE047AB4EEE78A92
:10148000F1EE10FA41D500232C496361204611F09A
:10149000B9FBDFED2B7AB4EEE78AF1EE10FA4FF0EC
:1014A00001134CBF01210021B0EE480A63612046C0
:1014B00011F0CBFC2046012104F0CDFD214B23612E
:1014C0002149204611F0B8FB204B236120462049DA
:1014D00011F0B2FBBDEC028B2046BDE8384004F0B1
:1014E00065B818EE100AFFF71FF80DA3D3E9002323
:1014F000FFF772F8FFF752FB022108EE100A256190
:10150000204604F0A8FD1349ADE7DFED137AB4EEF1
:10151000E78AF1EE10FABCD5002310496361B5E704
:101520000CA4D5DA45E2E33F0C0800206400060075
:101530004C0700207B780108230006008178010811
:1015400000007A44010003008478010801000D00C6
:10155000897801087E7801080000C8428278010875
:1015600073B54FF001150446456103F084FC204635
:10157000022104F070FD052323611249204611F079
:101580005BFB102201212368CDE9002120460F22B8
:101590001E6C0D212623B0470B480C490023C4E9DB
:1015A0000403204611F048FB094B0A49C4E90435FD
:1015B000204611F041FB204602B0BDE8704003F028
:1015C000F5BF00BF8E7801080F0010009978010860
:1015D0004C0010009D78010837B54FF00115044606
:1015E000456103F048FC2046022104F034FD052348
:1015F00023611249204611F01FFB114B1149C4E928
:101600000435204611F018FB102201212368CDE992
:10161000002120461D6C0F221A234A21A8470A48A0
:101620000A490023C4E90403204611F005FB2046C3
:1016300003B0BDE8304003F0B9BF00BF8E780108A9
:101640000F001000997801084C0010009D780108E7
:101650004FF0011310B50446436103F00CFC204623
:10166000022104F0F8FC062323611249204611F000
:10167000E3FA114B23611149204611F0DDFA2046AF
:10168000032104F0E8FC0E4B23610E4B0A2219687B
:1016900091FBF2F1204611F022FB2368F7211B6831
:1016A00020469847204611F0B5FA2046BDE8104084
:1016B00003F07CBFA078010802000F00A4780108A5
:1016C00042000600AC0700204FF0011310B504469D
:1016D000436103F0D0FB2046022104F0BCFC06234A
:1016E00023611049204611F0A7FA0F4B23610F49DF
:1016F000204611F0A1FA2046032104F0ACFC0C4B6B
:1017000023610C4B0A22196891FBF2F1204611F07B
:10171000E6FA2046084911F08FFA2046BDE810404D
:1017200003F044BFA978010802000F00AD7801085A
:1017300042000600B0070020B2780108B5EEC00AEA
:10174000F1EE10FA1EDBF2EE047AB4EEE70AF1EEE7
:1017500010FA2FD4DFED1A7AB4EEE70AF1EE10FAA0
:101760002AD4DFED187AB4EEE70AF1EE10FA25D4A8
:10177000DFED157AB4EE670AF1EE10FA4CBF0420E3
:1017800000207047FAEE047AB4EEE70AF1EE10FAA0
:1017900012DCDFED0E7AB4EEE70AF1EE10FA0DDCA2
:1017A000DFED0B7AB4EE670AF1EE10FACCBF04203D
:1017B00000207047012070470220704703207047C7
:1017C0000000C84200007A4400401C460000C8C225
:1017D00000007AC470B5174ED6ED007AB8EEE70A6D
:1017E0000446FFF7ABFF4FF0011363610546204647
:1017F00003F041FB2046032104F02DFCC5EB4533EB
:10180000C5EBC3052F3506236382316825820A2282
:10181000204611F066FA2046022104F01CFC064B1B
:1018200023612046054911F007FA2046BDE87040C3
:1018300003F0BCBE6807002058000A00B478010815
:1018400070B54FF001132DED028B4361044603F098
:1018500012FB394B1868FEF755FE384B1E78AEBBAD
:1018600031A3D3E90023FEF7B7FEFFF797F908EE9F
:10187000100AB0EE480AFFF761FF03210546204633
:1018800004F0E9FBC5EB4533C5EBC305ADB205F18B
:1018900025032382062363823146B0EE480A2046A0
:1018A00011F0CEFAC5F129050A23022125826382AF
:1018B000204604F0D0FB2249204611F0BDF9BDECD2
:1018C000028B2046BDE8704003F070BE18A3D3E938
:1018D0000023FEF781FEFFF761F908EE100AB0EE73
:1018E000480AFFF72BFF03210546204604F0B3FB0F
:1018F000C5EB4533C5EBC305ADB205F12F0323821C
:10190000062363820021B0EE480A204611F098FABF
:10191000C5F133050A23022125826382204604F0A3
:101920009AFB0849C8E700BF7B14AE47E17A843FC1
:10193000CF3ADE978C73793F640700204C07002074
:10194000B8780108BD7801082DE9F0412DED028B32
:101950004FF0011384B043610446012603F08BFA73
:101960002023CDE9013600222823009311463E4B67
:10197000204604F03EF93D4B93ED008A3C4B93F832
:101980000080B8F1000F31D1B0EE480AFFF7D6FE63
:1019900003210546204604F05EFBC5EB4533C5EB4D
:1019A000C305ADB205F14703062723824146B0EED9
:1019B000480A6782204611F043FAC5F14A0109B28C
:1019C000009602230722204604F044F8C5F1500592
:1019D000284925826782204611F02EF9204604B05E
:1019E000BDEC028BBDE8F04103F0E0BD18EE100A3B
:1019F000FEF79AFD1AA3D3E90023FEF7EDFD0022BE
:101A00001D4BFEF733FCFFF7C9F808EE100AB0EEE5
:101A1000480AFFF793FE03210546204604F01BFB0E
:101A2000C5EB4533C5EBC305ADB205F1470306274A
:101A300023820021B0EE480A6782204611F000FAA6
:101A4000C5F14A0109B20096022307222046C5F1DA
:101A5000500503F0FFFF094925826782BBE700BFFD
:101A6000CDCCCCCCCCCCFC3F707F010874070020DF
:101A70004C0700206C79010800004040847901087F
:101A800038B54FF001132DED028B0446436103F08E
:101A9000F2F90221204604F0DEFA4FF440332361CC
:101AA0003D499FED3E8A204611F0C6F801212046AF
:101AB00004F0D1FA4FF4A81323613949204611F0FC
:101AC000BBF8384BD3ED007A374B1B783BBBDFEDCF
:101AD000376A87EEA67A03212046B4EEC87AF1EE83
:101AE00010FA58BFB0EE478A04F0B5FA304B2361C4
:101AF0000121B0EE480A204611F0A2F92D4B2361D6
:101B00000121204604F0A7FA2B49204611F094F851
:101B1000BDEC028B2046BDE8384003F047BD17EE10
:101B2000900AFEF701FD1AA3D3E90023FEF754FD46
:101B3000FFF734F807EE900AF5EEC07AF1EE10FAEE
:101B400058BFB0EE678AB0EE480AFFF7F7FD0321F1
:101B50000546204604F07FFAC5EB4533C5EBC305C7
:101B6000ADB205F147032382062363820021B0EE64
:101B7000480A204611F064F9C5F149050A230221FB
:101B800025826382204604F066FA0C49BDE700BF57
:101B90008EF117699890C23FC178010800000000DB
:101BA000C6780108D00000204C0700200000C84281
:101BB000340006006D001200CF780108D3780108C8
:101BC00070B51C4E96ED000A0446FFF7B7FD4FF0C6
:101BD000011363610546204603F04DF920460221BA
:101BE00004F039FA022323611349204611F024F846
:101BF000124B23611249204611F01EF820460321A2
:101C000004F029FAC5EB4533C5EBC3054F35062370
:101C100096ED000A638225820021204611F010F91A
:101C20002046084911F008F82046BDE8704003F04E
:101C3000BDBC00BF6C070020D778010802000F0070
:101C4000DC780108B278010830B52DED028B4FF039
:101C5000011385B04361044603F00DF920230122EE
:101C6000CDE9013228230022009311463A4B9FED23
:101C70003B8A204603F0BDFF394BD3ED007AF4EEEA
:101C8000C87AF1EE10FA48BF83ED008A354B1B7815
:101C900048BFF0EE487A0BBB9FED337A87EE878A18
:101CA0000321204604F0D7F9304B2361012120465F
:101CB000B0EE480A11F0C4F82D4B236101212046F3
:101CC00004F0C9F92B49204610F0B6FF204605B0B4
:101CD000BDEC028BBDE8304003F068BC17EE900A03
:101CE000FEF722FC1AA3D3E90023FEF775FCFEF7EA
:101CF00055FF07EE900AF5EEC07AF1EE10FA58BFE4
:101D0000B0EE678AB0EE480AFFF718FD03210546DA
:101D1000204604F0A0F9C5EB4533C5EBC305ADB2D1
:101D200005F147032382062363820021B0EE480AAF
:101D3000204611F085F8C5F149050A2302212582C4
:101D40006382204604F087F90B49BCE7AFF30080BB
:101D50008EF117699890C23F1080010800000000C2
:101D6000D40000204C0700200000C84234000600C8
:101D70006D001200CF780108D37801080000000040
:101D80002DE9F0412DED028B4FF0011384B043613A
:101D90000446012603F06FF82023CDE90136002226
:101DA0002623009311463E4B204603F022FF3D4B75
:101DB00093ED008A3C4B93F80080B8F1000F31D1CD
:101DC000B0EE480AFFF7BAFC03210546204604F0AE
:101DD00042F9C5EB4533C5EBC305ADB205F1470389
:101DE000062723824146B0EE480A6782204611F05A
:101DF00027F8C5F14A0109B20096022307222046BE
:101E000003F028FEC5F15005284925826782204647
:101E100010F012FF204604B0BDEC028BBDE8F0418B
:101E200003F0C4BB18EE100AFEF77EFB1AA3D3E939
:101E30000023FEF7D1FB00221D4BFEF717FAFEF739
:101E4000ADFE08EE100AB0EE480AFFF777FC03215A
:101E50000546204604F0FFF8C5EB4533C5EBC30546
:101E6000ADB205F14703062723820021B0EE480AF0
:101E70006782204610F0E4FFC5F14A0109B20096DE
:101E8000022307222046C5F1500503F0E3FD09496E
:101E900025826782BBE700BFCDCCCCCCCCCCFC3F4D
:101EA000307E0108780700204C0700206C7901087B
:101EB0000000404084790108F0B52DED028B4FF011
:101EC000011385B043610446012602F0D4FF2023AC
:101ED0000022CDE9013600931146354B204603F030
:101EE00088FE344B93ED008A334B1F78AFBB18EE5E
:101EF000100AFEF719FB2CA3D3E90023FEF76CFBB5
:101F0000FEF74CFE08EE100AB0EE480AFFF716FC8A
:101F100003210546204604F09EF8C5EB4533C5EB8A
:101F2000C305ADB205F14703062639462382668212
:101F3000B0EE480A204610F083FFC5F14B051F495B
:101F400025826682204610F077FE204605B0BDEC63
:101F5000028BBDE8F04003F029BBB0EE480AFFF762
:101F6000EDFB03210546204604F075F8A81CC0B21D
:101F7000C0EB4033C0EBC30085B205F147032382B9
:101F8000062363823146B0EE480A204610F058FF1F
:101F9000C5F149051223314625826382204604F0AB
:101FA0005AF80749CEE700BF48E17A14AE470E4021
:101FB000B07D0108700700204C070020E37801087D
:101FC000E178010870B5054602F055FF1E4B1F4A27
:101FD0001B7812781344172BDEB2C4BF183EF6B23A
:101FE00007EE906AB8EE670AFFF7A8FB4FF00113FF
:101FF00004466B610321284604F02DF8E31CDBB294
:10200000C3EB4332C3EBC2033F332B8206236B8205
:102010000A2231460E4C284610F07AFE3A21284614
:1020200010F0F4FD2378092B03D83021284610F056
:10203000EDFD217828460A2210F06CFE2846BDE806
:10204000704003F0B3BA00BF450700200508002028
:1020500004080020144B1B78092B24D8DFE803F078
:1020600005080B0E1114171A1D201048FFF7ECBDC0
:102070000E48FFF785BE0D48FFF7A2B90B48FFF7E2
:102080001BBF0A48FFF7A6BB0848FFF7D9BB0748A4
:10209000FFF798BF0548FFF763B90448FFF778B921
:1020A0000248FFF745B970473E000020740A00203F
:1020B000F0B5844C237885B00F2B75D8DFE813F08A
:1020C000EE0010001D002A003700440051005E00A1
:1020D0008D009A00A700B400C100CE00DB00E8002C
:1020E000794B1A781AB9794B197801B11A70784876
:1020F00005B0BDE8F040FFF7A7BD734B1A781AB9D9
:10210000724B197801B11A70714805B0BDE8F04002
:10211000FFF736BE6C4B1A781AB96C4B197801B1BF
:102120001A706B4805B0BDE8F040FFF70DBC664B78
:102130001A781AB9654B197801B11A70644805B05C
:10214000BDE8F040FFF7B8BE5F4B1A781AB95F4B95
:10215000197801B11A705E4805B0BDE8F040FFF78C
:102160002FB9594B1A781AB9584B197801B11A700E
:10217000574805B0BDE8F040FFF724BF524A117838
:1021800071B9524B187828B1197001231370514A54
:10219000136009E04E4805B0BDE8F040FFF74CB9C8
:1021A00063781BB1012B10D005B0F0BD4848FFF794
:1021B000D7F9464B1B78002BF6D0474B00221A600C
:1021C00000F02EFF07232370EEE74148FFF704FAE3
:1021D0003E4B1B78002BE7D0F2E73B4B1A781AB93D
:1021E0003A4B197801B11A70394805B0BDE8F04092
:1021F000FFF726BB344B1A781AB9344B197801B162
:102200001A70334805B0BDE8F040FFF7E3BA2E4B33
:102210001A781AB92D4B197801B11A702C4805B0EB
:10222000BDE8F040FFF714BA274B1A781AB9274BCC
:10223000197801B11A70264805B0BDE8F040FFF7E3
:102240004BB8214B1A781AB9204B197801B11A7082
:102250001F4805B0BDE8F040FFF712BC1A4B1A78D2
:102260001AB91A4B197801B11A70194805B0BDE8AE
:10227000F040FFF7A5BC144B1A781AB9134B197824
:1022800001B11A70124805B0BDE8F040FFF71CBA62
:102290000F4805B0BDE8F040FFF74AB80A4A137886
:1022A000E3B90A49087830B10B7001231370094B68
:1022B00003221A6078E7064805B0BDE8F040FEF753
:1022C00097BF00BF3F0000204D070020FC07002003
:1022D000E00A0020440000200C0800206178032957
:1022E0003FF662AFDFE811F0040049008400DE0031
:1022F000012B0FD1764B197831B1002119700223CF
:102300001370744B0822D4E7734805B0BDE8F04061
:10231000FEF794BFA378092B3FF646AFDFE803F042
:10232000051215181B1E2124272A6C4B00221A7037
:10233000674B1B78002B3FF437AF05B0BDE8F0408A
:1023400000F06EBE654B0122F1E7644B0222EEE71E
:10235000624B0322EBE7614B0422E8E75F4B052267
:10236000E5E75E4B0622E2E75C4B0722DFE75B4BCB
:102370000822DCE7594B0922D9E7012B0DD154493A
:10238000087820B10020087002211170FFE6524841
:1023900005B0BDE8F040FEF76BBFA4788CB1012C0E
:1023A0007FF402AF4C4D4FF0011328466B6102F0F1
:1023B00062FD0221284603F04EFE494B49492B613C
:1023C0000DE0454D4FF0011328466B6102F053FDBF
:1023D0000221284603F03FFE434B44492B61284627
:1023E00010F02AFC284603F0E1F8414B1C709FE7EF
:1023F0003749012B0C780BD124B100230B70022339
:102400001370D1E6344805B0BDE8F040FEF74ABF8E
:10241000384E394D34B3002010F0ACFD00240120BB
:1024200010F0A8FD354F0194694602222046CDE9FF
:102430000256009710F052FD6846FEF7D0FE69463E
:1024400002220120CDE90074CDE9025610F046FDCC
:102450006846FEF7C4FE2A4B19782A4B187805F017
:102460001BFB6AE7204610F085FD012010F082FD7D
:10247000254F0194694602222046CDE90256009775
:1024800010F02CFD6846FEF7AAFE022269460120E4
:10249000CDE90074CDE9025610F020FD6846FEF744
:1024A0009EFE65E60C4C4FF001132046636102F07E
:1024B000E2FC2046022103F0CEFD144B14492361B7
:1024C000204610F0B9FB204603F070F830E700BF5B
:1024D000FC07002044000020E00A00203E0000200D
:1024E00014000800EC7801081F000800E5780108D6
:1024F0004C070020DB110008BB1100089D2F0008CD
:102500004C00002045070020E92F000823000800A8
:10251000F578010808B5094807F016FE084807F0E5
:1025200013FE084807F010FE074807F00DFE0748A5
:1025300007F00AFEBDE8084001F07EB8240A00203A
:10254000F8090020CC090020A0090020740900200F
:1025500030B5B02085B00CF037FB184D04464FF075
:1025600080410CF099FA0222204642F210712C6050
:102570000CF0CAF900230193114B0093114B28680A
:1025800003936946104B02930CF0CDFA6846FEF7B0
:1025900026FE28680CF07BF80C490D4810F02EFB45
:1025A0000A2242F210710A4810F0A5FB09490848B6
:1025B00005B0BDE8304010F035BB00BF4807002033
:1025C00015250008DB110008BB110008FA78010886
:1025D000E83A00201B79010870B5AB4C86B010F0CA
:1025E000E5FE2368C01A14287DD9A84DA84B296898
:1025F0001A78C02001F072F8A64B286007EE900A06
:1026000093ED007AA44BA54DF8EEE77A296867EEC2
:10261000877AC320C3ED007AA14B1A7801F05EF8E7
:1026200007EE900AF8EEE77A286017EE900AFDF7B9
:102630007BFF93A3D3E90023FDF7CEFFFEF7AEFAAD
:10264000984B99491A68994D00EE100A984801F084
:1026500003FB984B83ED000A974B95ED000A197820
:10266000C42001F069F8954B95491A68954885EDA5
:10267000000A01F0F1FA944B944D83ED000AF2EE5A
:10268000047A20EE270A924BD5ED007ABDEEC00AFF
:10269000FDEEE77A83ED000A8E4B17EE901A1A785A
:1026A000C52001F031F807EE100ADFED8B7AB8EEA5
:1026B000477AB4EEE77AF1EE10FA08D4DFED877AC4
:1026C000B4EEE77AF1EE10FAD8BFF0EE477A844B19
:1026D000C5ED007AFDEEE77AC3ED007A00F01AFC52
:1026E00010F064FE20607F4C10F060FE2368C01A7A
:1026F000142804D901F0ECF810F058FE20607A4C50
:1027000010F054FE2368C01A142804D901F082FA8C
:1027100010F04CFE2060754D0FCD6C460FC495E84F
:10272000030084E803007248694604F0EDFE88B1B6
:10273000704B00981860704B9DF80B206F4C704DDB
:102740001A700DF10B0100239A4200F38D800021D5
:10275000FEF7BEFC6B4B1B78032B01D1FEF7F4FC9C
:10276000694C10F023FE2368C01A012804D900F038
:1027700013FB10F01BFE2060644C10F017FE236862
:10278000C01A0A2804D901F0AFFA10F00FFE206039
:102790005F4C10F00BFE2368C01A14282AD95D4B39
:1027A000188800F069FD01465B4807F0BAFC5B4BF6
:1027B000188800F091FD0146594807F0B2FC594BCA
:1027C000188800F059FD0146574807F0AAFC574BFE
:1027D000188800F051FD0146554807F0A2FC554B02
:1027E000188800F01BFD0146534807F09AFC10F0D2
:1027F000DDFD2060514C10F0D9FD2368C01A32284D
:1028000006D94F4B186800F021FC10F0CFFD206076
:102810004C4C10F0CBFD2368C01A642806D9FFF792
:1028200047FCFFF717FC10F0C1FD2060464C10F08C
:10283000BDFD2368C01A322802D910F0B7FD206010
:10284000154B93ED007AF7EE007AB4EEE77AF1EEED
:1028500010FA07D510F0AAFD41F29413984201D95D
:1028600001F04AFC06B070BD082B3FF470AF11F8C0
:10287000016F04F8016B05F8016B013364E700BFD9
:102880007B14AE47E17A843FF0070020E00000208F
:10289000300000202C000020E40000205808002018
:1028A00028000020A87D01085000002050080020CA
:1028B000740000207007002027000020AC7D010874
:1028C00098000020B0000020540800204808002094
:1028D0004C080020260000200000164400408344DD
:1028E00084070020DC070020D807002008780108B2
:1028F0004C0B002058070020570700204F070020EE
:102900005C07002044070020E4070020D4070020D3
:10291000E00700203C000020240A00203A000020AC
:10292000F809002038000020CC09002036000020E3
:10293000A00900203400002074090020EC070020CA
:1029400068070020F8070020F40700202DE9F04177
:102950009E489F4F9F4EA04DADF5396D4FF4E1312C
:102960000EF02AFA0121342010F042FC012134201B
:1029700010F0A8FC062299484FF4165110F0A6F862
:10298000964906A805F026FB4FF4165106A805F057
:10299000AFFA934906A805F041FD924906A805F053
:1029A0003DFD914906A805F039FD0221332010F0C4
:1029B0001FFCD7F8CC008D4B0293411C18BF33206D
:1029C0004FF00008032202A9CDF80C80059604956B
:1029D00010F084FA02A8FEF702FC0221192010F080
:1029E00007FC786E824B0293441C18BF1920032207
:1029F00002A90124CDE90456CDF80C8010F06EFA3E
:102A000002A8FEF7ECFB23460094424602217948D7
:102A100002F040FA2346424602210094764802F032
:102A200039FA7448FEF784FC7348FEF799FC214696
:102A30004A2010F0DDFB21464A2010F043FC00F054
:102A4000D7FC21463D2010F0D3FB21463E2010F05C
:102A5000CFFB21463F2010F0CBFB2146674C2620C0
:102A600010F0C6FB2378402B05D940236449574812
:102A7000237010F0E1F8634B634A1B78127813441B
:102A80002278B3EB520F03DB6049504810F0D4F8C2
:102A90005F48DFF8CC8105F013F8FF215C4805F0B2
:102AA00099F95B4805F062F80221352010F0A0FB8F
:102AB000D7F8DC00CDF80880431C18BF372002226D
:102AC00002A90024CDE90456039410F007FA02A8E5
:102AD000FEF785FBB86D421C18BF1620022202A922
:102AE000CDE90456CDE9028410F0F8F902A8FEF70A
:102AF00076FB484D484E3078204404F099FF01346D
:102B0000042C05F8010BF6D1444B454D1878454E81
:102B100004F08EFF444B1870444B187804F088FF83
:102B2000434B28701F780024381904F081FF0134CA
:102B3000042C06F8010BF7D13E4B3F4E1F780024C2
:102B4000381904F075FF0134042C06F8010BF7D195
:102B50003A4B3B4E1F780024381904F069FF0134CA
:102B6000042C06F8010BF7D1364B187804F060FFFF
:102B7000354B36491870154810F044F80A22297868
:102B8000124810F0C7F83248002104F091FE314994
:102B90002F4804F079FEFEF70FFB2F490B4810F089
:102BA00031F82E4B094819780A2210F0B3F8FFF7D4
:102BB000CFFC40F2DB5410F0F9FBA042FBD906A891
:102BC00005F030F90DF5396DBDE8F081E83A0020E7
:102BD000309E0108DB110008BB1100085C080020D2
:102BE0002C7901085E7901086E790108B93700086F
:102BF000A93B0008E00A0020740A00201A00002007
:102C0000867901081900002018000020BD7901080C
:102C1000500A00203F0000204E0700204D000020F9
:102C200045070020100800203E0000204C00002036
:102C30004B0000204A0000200C0800204900002022
:102C400058080020480000204C0700200B7A01089B
:102C50004C0B002020A10700197A0108440700202E
:102C60009D2F00081FB510232B4C00932B492C4897
:102C7000002204F04DFA0823CDE9023438221C2347
:102C8000CDE900328021274B2748202201F0E8FFC0
:102C90003B233921CDE901313A2300930394214BA1
:102CA00022482022802101F0DBFF16223721204814
:102CB00004F08EFE5223472240211E4805F04EF8B4
:102CC0001D491E4809884F233C2207F091F91C49F1
:102CD0001C4809884C234B2207F08AF91A491B48E3
:102CE00009884923482207F083F9194919480988B6
:102CF0004D234E2207F07CF91749184809884323D1
:102D0000422207F075F9522300931A221B2114481E
:102D10000FF090FD04B010BD00127A000064004076
:102D20004C0B0020D0180020E00A0020740A00207C
:102D3000700A0020500A00203C000020240A0020D5
:102D40003A000020F809002038000020CC090020BB
:102D500036000020A0090020340000207409002063
:102D60005C08002008B5074804F09CFE064801F006
:102D7000A7FF064801F0A4FFBDE80840044804F09E
:102D80005DBC00BF500A0020740A0020E00A002049
:102D90004C0B0020000000002DE9F0414A4D2DEDC4
:102DA000028B284605F04EFA284605F039FB00282C
:102DB0005AD0284605F037FB0146284606F0FCF8B5
:102DC000002851D0414E424C3368DFF828812360FF
:102DD00010F0ECFA3F4BD8F8002024681A603E4B04
:102DE0003060041B1C60686EFDF79EFB30A3D3E9C6
:102DF000002306460F46FDF7EFFBFDF7CFFE374BEE
:102E000008EE100A186039462BA3D3E90023304698
:102E1000FDF7E2FBFDF7C2FE07EE900AFCEEE77A53
:102E20002F4A304EC2ED007A17EE903A23F07F43DE
:102E3000C8F800302C4B1B78032B19D12046B0EE7C
:102E4000480A00F009FDB5EEC00AF1EE10FA86ED71
:102E5000000A01DD00F0BCFB244B95F83A201A7003
:102E6000234B95F83B201A70BDEC028BBDE8F08136
:102E7000F0EE007AB4EEE78AF1EE10FA12DD07EE1A
:102E8000904AF8EEE77A67EE887A17EE900AFDF737
:102E90004BFB0BA3D3E90023FDF79EFBFDF77EFE62
:102EA0003060D9E700233360D6E700BFAFF300807E
:102EB0006F1283C0CAA1FD3F6666666666266740DC
:102EC00091AB529030A4923EBC0B0020D800002061
:102ED00020080020240800201408002018080020E2
:102EE0001C080020080800200B0000200508002016
:102EF00004080020DC0000200149024805F06AB8FF
:102F00005C080020BC0B0020014804F08BBF00BF10
:102F1000BC0B0020F8B5352010F00CFA1A4F1B4EF0
:102F20003B781B4D041E18BF01243470E41A10F0C6
:102F30003DFA2B68C01A32280DD9164B00221A70A0
:102F4000621C1ED110F032FA124B286001221A7056
:102F500033783B70F8BD631C04D10E4B1B78002BFB
:102F6000F6D1EFE7012CF3D10A4B1B78002BEFD100
:102F700010F01CFA074A286001231370064A1370E8
:102F8000E6E7012CE4D1F3E7E8000020E9000020A7
:102F90003817002034170020FC07002008B50E4821
:102FA00004F01CFD10280BD10C4B0D491A780D486C
:102FB0008B5C006883420CBF002301338B5408BD37
:102FC0002028FCD1054B06491A788B5C13B9054BB8
:102FD0001B68F3E7013BF1E7700A00204D07002072
:102FE0003F0000204400002008B50B4804F0F6FC28
:102FF000102807D1094A1378172B0CBF002301337F
:10300000137008BD2028FCD1044A13780BB917238C
:10301000F6E7013BF4E700BF700A002045070020F7
:10302000064A00231370064A137053709370054AC2
:103030001370054B0E221A60704700BFFC0700207A
:103040003F0000204D070020440000206A4B2DE97E
:10305000F3471968DFF8B89188426FD399F80040B8
:10306000DFF8B081654F002500956408D8F800208E
:1030700023460FF0C8FFAA4606463D78631B53451A
:103080005FDA254401354FF0000A99F80030AB4271
:1030900063DC97F800A0DFF88091A4EB0A0A0AF13C
:1030A000FF3A99F80050631B534560DA2544013517
:1030B0004FF0000A3B782344AB4264DA99F80050A1
:1030C000651B013D0027A54267DD2546002799F8CD
:1030D00000302344AB4269DAA51B00272644AE42E8
:1030E0006DDC474B1A68D8F800309A4220D9454F1A
:1030F00010F05CF93B68C01A322819D9424E96F894
:103100000080B8F1000F63D010F050F933783860C8
:1031100083F0010333700BE00023A1B23B4800951C
:103120001A4604F031FE013499F80030A342F3DC72
:10313000364802B0BDE8F04704F018BD002425462B
:10314000F2E7002300931FFA8AF130480F231E2272
:1031500004F01AFE0AF1010A8FE7A9B22B48CDF854
:1031600000A00F231E2204F00FFE01358DE700237F
:1031700000931FFA8AF125480A23502204F004FE26
:103180000AF1010A8DE7A9B22048CDF800A00A2370
:10319000502204F0F9FD01358CE7A9B21B480097D5
:1031A0000023502204F0F0FD01358CE7A9B2174846
:1031B00000970023502204F0E7FD013587E7002344
:1031C000A9B2124800971A4604F0DEFD013586E7E1
:1031D00099F80050651B013D99F800302344AB423B
:1031E00092DB0023A9B20948CDF800801A4604F00A
:1031F000CBFD0135F0E700BF1000002019000020D2
:1032000068070020E80700203C170020500A002033
:103210001A00002014000020180000200146124867
:10322000036847F230529342C4BF026013464FF224
:10323000B92253430D4A10880D4A934210DD0D4ABE
:1032400093FBF2F28242A8BF02468B1E534393FBCC
:10325000F0F3581C002805DD814204DC481E70474D
:103260000022F2E701207047640700201C000020C4
:103270003F4B4C00A0860100134BD3ED006A134B6B
:1032800093ED007A124BC6EE877A37B505466C1E71
:103290004FF47A7264219FED0F7A67EE877AFCEE25
:1032A000E77AC3ED007A17EE900A012300940FF03D
:1032B000AAFE031E05DD9D42C8BF1C46204603B082
:1032C00030BD0124FAE700BF700700200000002095
:1032D0000008002000007A44144BD3ED007ABDEEC4
:1032E000E77A13B5044617EE100A9FED117AF4EE53
:1032F000C77AF1EE10FA04EBD47358BF04F1FF3231
:103300004FEA630349BF00930092012362224EBF3C
:103310003C21732262210FF076FE002804DDA042DA
:1033200000DB601E02B010BD0120FBE77807002023
:103330000000BE42244B2DE9F041DFF8B0801B882D
:10334000C8F80430214B224D1B886B60214B224C66
:103350001B886360214B224F1B887B60214B224ED0
:103360001B8873600021404606F0DBFE00212846E2
:1033700006F0D7FE0021204606F0D3FE0021384695
:1033800006F0CFFE0021304606F0CBFE6A68D8F882
:1033900004301343626813437A681343726813431B
:1033A00001D1BDE8F081404606F0CEFE284606F089
:1033B000CBFE204606F0C8FE094806F0C5FE0A48C6
:1033C00006F0C2FEE2E700BF3C0000203A00002009
:1033D000F809002038000020CC0900203600002029
:1033E000A00900203400002074090020240A0020D5
:1033F0002DE9F74F684C694DDFF8CCA1DFF8CCB16F
:10340000674EFFF797FF674967480FF015FC218863
:10341000664806F086FE2988654806F082FEBAF8FE
:103420000010644806F07DFEBBF80010624806F00C
:1034300078FE3188614806F074FE2A8823889A4213
:1034400038BF1A46BAF800309A4238BF1A46BBF85D
:1034500000309A4238BF1A4633889A4238BF1A461B
:10346000002A62D0564B198800295ED04FF47A703A
:103470000023A1FB0001FDF7E1FB0A2838BF0A2069
:1034800004460FF095FFDFF82491DFF824810190C6
:10349000414BD9F804201B88013B9A4247D33F4B4C
:1034A000D8F804201B88013B9A4240D3414DBAF81A
:1034B00000306A68013B9A4239D33F4FBBF8003075
:1034C0007A68013B9A4232D3354B3C4E1B88726876
:1034D000013B9A422BD33B4933480FF0ADFB3348B5
:1034E000002106F01EFE3248002106F01AFE0021DF
:1034F000284606F016FE0021384606F012FE00218E
:10350000304606F00EFE0FF053FF8246D8F8042036
:10351000D9F8043013436A6813437A681343726816
:1035200013431ED103B0BDE8F08F0A24A9E70FF0C2
:103530003FFF019BC31A9C4205460FD8484606F040
:1035400003FE404606F000FE1A4806F0FDFD1A484C
:1035500006F0FAFD194806F0F7FD01950FF05DFD44
:1035600096E70FF025FFA0EB0A039C4283460FD895
:103570000E4806F0E9FD0E4806F0E6FD284606F086
:10358000E3FD0D4806F0E0FD0C4806F0DDFDDA46EF
:103590000FF043FDBAE700BF3C0000203A000020D6
:1035A000340000203F7A0108E83A0020240A002075
:1035B000F8090020CC090020A0090020740900208F
:1035C00032000020467A0108380000203600002032
:1035D000144B1B7806EE903A134B1B7807EE103A0B
:1035E000F8EE666AB8EE477A104BC6EE877A1B880B
:1035F0009FED0F7A20EE070A07EE103A67EE807A09
:10360000B8EEC77A67EE877AF5EEC07AF1EE10FA77
:10361000C1BF084B93ED007A77EE277AC3ED007AAD
:10362000704700BF0C0000200D0000200E0000209D
:103630002B121F3F48170020224B2DE9F04118683C
:10364000214FFCF771FF214B0022FCF70FFEFDF725
:1036500085FA3B68834209D2DFF87C800FF0A8FE30
:10366000D8F8003005461BB9C8F80050BDE8F08115
:10367000C31A41F287329342F8D9154E154C33786C
:10368000033303F003033D2014F8231033700FF0CD
:1036900019FE337804EB83033E2059780FF012FEB5
:1036A000337804EB83033F2099780FF00BFE3378D7
:1036B00004EB83042620E1780FF004FE3B6801331D
:1036C0003B60D1E748170020441700200000E03F8E
:1036D0003D170020C08601084017002037B514466A
:1036E0000D460FF06FFD40F2BB53009300231946C7
:1036F00040F6FF720FF087FCC4F14003604305FB06
:103700000300800903B030BD37B514460D460FF0F5
:1037100059FD40F61403009340F26C720023D4214B
:103720000FF071FCC4F11003604305FB03000009B6
:1037300003B030BD0000000010B52DED028B82B04B
:10374000B0EE408A0C460FF03DFD40F2BB530093B3
:10375000002340F6FF7219460FF055FC07EE904A21
:10376000F8EEE78AFCF7CEFE11A3D3E90023FCF7BD
:1037700033FFC4F16404FDF711FA07EE904AF8EE46
:10378000E77A07EE100A27EE880AA8EE870A10EEFD
:10379000100AFCF7C9FE06A3D3E90023FCF71CFFBF
:1037A000FDF7FCF900EE100A02B0BDEC028B10BD73
:1037B0007B14AE47E17A843F10B50FF0F9FD1D4B45
:1037C0001D491A68821AA2F165048C420BD9653131
:1037D0008A4207D9194A186000231370184A1370D7
:1037E000184A137010BD15490978012904D01649EB
:1037F0000968B1F57A7F07D21449096821B102EB53
:103800008204B4EB410FEDD318600E49104B1860E1
:103810000B78104840F8232001330522B3FBF2F265
:1038200002EB82029B1A064A0B701378042BD9D83C
:103830000133D6E73C080020BAA007006817002033
:10384000691700206A170020340800206417002040
:10385000601700206C170020B0EE007AB4EEC70AA3
:10386000F1EE10FA08B507EE900A1FDDF8EE677A60
:1038700067EE807A17EE900AFCF756FE11A3D3E9A3
:103880000023FCF7A9FEFDF789F900EE100A0A4BA8
:10389000D3ED007A77EE807AC3ED007A074BD3ED53
:1038A000007A77EE807AC3ED007A08BD9FED040AB6
:1038B000EDE700BFAFF30080100800200C080020E7
:1038C0000000000091AB529030A4923E0000000036
:1038D0002DE9F04F87B00FF06BFD994B994E1B68A7
:1038E000A0EB0309984B994505462ED9974A9FEDC1
:1038F000980A82ED000A974A00231360964A3370B3
:103900001360964A1370964A1370964A1360964A4B
:103910001060964A1360964B1B78022B10D1954B82
:10392000186868B1281A4FF47A73B0FBF3F0FFF708
:1039300093FFB5EEC00AF1EE10FA01DDFFF748FE85
:103940008C4B1D6007B0BDE8F08F327812B3012AAE
:1039500029D03378022B40F0B280844B1F687F4B14
:103960001C78EF1B002C00F0D180834B9F4200F2AB
:10397000CD808249A20001A810F0EBFE002304F1E3
:10398000FF3E734539DADAB2944236D9013301AADF
:1039900019462FE0714B1B78002BDAD001233370CE
:1039A0006C4B1A60D5E76D4B1C78042C17D9734902
:1039B0000B68184651F8047F0132BB4228BF3B46D2
:1039C000D2B2B84238BF38469442F3D13BB103EB90
:1039D0004303B3EB400F02D902233370B9E75D4BC9
:1039E0000022DEE7106852F804CF604588BF42E944
:1039F00001C00131A142F5DBC3E7630806AA02EB6F
:103A00008302E10752F8142C06D406A901EB8303C4
:103A100053F8183C13445A08524B1A60002A75D0C8
:103A2000574B58491B780988DFF828B1DFF828A1DF
:103A3000DBF800404B4353434FF47A72B3FBF2F38D
:103A4000514AB2FBF3F84046FCF74CFD4F4B0022C5
:103A5000FCF7ECFEFDF7A2F83C4B18604C4B1B78D2
:103A6000C3F5807208FB03F304FB02343E4B196874
:103A7000240AB1B1474B691A4A1E9A4211D8DAF8A2
:103A80000080A0450DD240F6CA5000232E4AA1FB6B
:103A90000001FDF7D3F8A4EB0803984238BF08EB08
:103AA0000004314B3C481D600A222146CBF80040FF
:103AB000CAF800400FF038F93378022B26D0374B84
:103AC0001978244B1A68914281BF234900221A6059
:103AD0000A60274A1278022A7FF432AF254A10681A
:103AE00000283FF42DAF4FF47A72281AB0FBF2F49D
:103AF0001868FCF7F7FC10A3D3E90023FCF76CFD72
:103B0000FDF74CF800EE100A204610E7244B9945CB
:103B1000D5D9104B19680029D1D0174A9742CED970
:103B2000E6225143090A19600B4B1B4819600A220F
:103B30000FF0FAF8C3E700BF7B14AE47E17A843F89
:103B40003C0800206817002040420F003808002081
:103B500000000000340800205C17002069170020D6
:103B60006A170020641700205817002060170020F3
:103B70000B0000204C1700203F0D03006C170020A5
:103B80002300002024000020002A75150000594061
:103B9000220000203E420F00E83A002021000020D1
:103BA000400D03000000000010B50FF001FC144AA6
:103BB00013681060C31AB3F5FA7F1AD9114A107846
:103BC0005843FCF78FFC02460B460BA1D1E90001DC
:103BD000FCF72CFEFCF79AFF0B4B0C4A18600C4BC1
:103BE00014681B78C3F58071434304FB01331B1237
:103BF000136010BDAFF3008000000000389C9C41B2
:103C000030080020200000202C0800202808002078
:103C10001F00002008B50FF0CBFB0A4B1B68C01A31
:103C2000094B984288BF0949094B82BF00221A609C
:103C30000A60084A11781A689142C4BF00221A60CB
:103C400008BD00BF3008002020A107002C0800207C
:103C5000280800201E00002070B502F180430546B0
:103C6000013BF5EC017A9E0000EB830400239342B4
:103C700001DB01230FE0B4EEE70AF1EE10FA02D502
:103C800091ED000A70BDB5EC017AB4EEC07AF1EEA8
:103C900010FA1BDB01339B001A1F84180A441844D6
:103CA000194494ED006A92ED007AD1ED006AD0EDEE
:103CB000007A76EEC76A77EEC67AC6EEA75A70EE3D
:103CC000467AA5EEA77AB0EE470ADBE794ED007AD4
:103CD000B4EEC07AF1EE10FA03D50E4496ED000A68
:103CE000D0E70133C3E700002DE9F0412DED028B51
:103CF000954F964C3B78013B032B00F2C881DFE8DF
:103D000003F002282C2E924B1B682360914D2B68E8
:103D1000002B63D00FF04AFB2B68A0EB03088C4B01
:103D200006461868FCF7EEFB81A3D3E90023FCF7F5
:103D300053FCFCF733FF00EE100A4046FFF78CFD02
:103D4000B5EEC00AF1EE10FA01DDFFF741FC2E607E
:103D50000BE0814B1B6823602AE0804BFAE700F000
:103D600091FA3B782060012BD0D03B78042B1FD1F7
:103D70007B4D2B68002B35D00FF018FB2F680646C3
:103D8000C71B2068FCF7BEFB69A3D3E90023FCF73F
:103D900023FCFCF703FF00EE100A3846FFF75CFD3A
:103DA000B5EEC00AF1EE10FA01DDFFF711FC2E604E
:103DB0006C4B1B78022B19D0032B19D0012B1AD175
:103DC000694B1868694B1860694B1B78013B042BE1
:103DD00040D8DFE803F01230383A3C000FF0E6FA42
:103DE0002860C2E70FF0E2FA2860E1E7614BE8E7FC
:103DF00000F004FAE6E70020E4E75F4B1868FCF700
:103E000081FB5E4B0022FCF711FD4BA3D3E900239D
:103E1000FCF72AFAFCF7C2FE00EE100A584B83EDBD
:103E2000000A584B1B78013B042B66D8DFE803F0EF
:103E300015565E606200544B93ED007AF2EE047A00
:103E400087EE270AEAE7514BF6E7514BF4E700F01B
:103E50002DFCE3E79FED4F0AE0E74F4B1868FCF7B6
:103E600051FB464B0022FCF7E1FC33A3D3E90023CE
:103E7000FCF7FAF9FCF792FE00EE100A474B83EDCF
:103E8000000A474B1B78022B3AD0032B3BD0012B67
:103E90003ED1444B1868FCF735FB384B0022FCF749
:103EA000C5FC27A3D3E90023FCF7DEF9FCF776FE77
:103EB0003D4B18603D4B1B78012B2BD0022B34D08F
:103EC00000203B4B18603B4B1B78013B042B00F25E
:103ED000A080DFE803F0758F97999B002A4B93ED44
:103EE000007AF2EE047A87EE270AC7E7274BF6E757
:103EF000274BF4E700F0ACFCC0E79FED260ABDE7D6
:103F00002D4B1868D4E700F0F9FA10EE100ACFE74D
:103F10000020CDE7294B1868FCF7F4FA174B002274
:103F2000FCF784FCFCF73AFECBE7234B1868C8E7A4
:103F30007B14AE47E17A843F3333333333535940F4
:103F400066666666661271400B00002064070020FA
:103F5000800700205417002034080020DC000020D7
:103F6000501700200A000020C40700206807002026
:103F70000900002028080020B40700200000244089
:103F8000D400002008000020480800204408002039
:103F90004008002000000000B8070020D0000020EA
:103FA00007000020A007002078070020060000205E
:103FB000740700200500002054080020940700200A
:103FC000344B1868FCF79EFA334B0022FCF72EFCAA
:103FD000FCF7E4FD00EE100A304B9FED318A83EDD3
:103FE000000A304B1B78013B032B4DD8DFE803F070
:103FF0001442484A2C4B93ED007AF2EE047A87EE95
:10400000270AE9E7294BF6E7294BF4E700F0F2FC31
:10401000E2E79FED280ADFE7274B1868FCF772FA02
:10402000264B0022FCF702FCFCF7B8FD07EE900AD5
:10403000234BC3ED007A234B1868FCF763FA164B49
:104040000022FCF7F3FBFCF7A9FD1F4B18601F4B88
:10405000D3ED006A1E4B93ED007A1E4BC6EE877AB5
:1040600067EE887ABDEC028BFDEEE77AC3ED007A4D
:10407000BDE8F0810C4B93ED007AC7EE087AD7E7E4
:104080000A4BF8E70A4BF6E7DFED0A7AD0E70023A0
:1040900061E600BFC007002000002440C8000020E7
:1040A0000000C84204000020480800204408002006
:1040B0004008002000000000A807002000408F40BA
:1040C000CC0000208C0700206C0700207007002027
:1040D000000000208807002038B5044600680D461F
:1040E00003F0A6FC854205D020682946BDE838408B
:1040F00003F0D2BC38BD000073B5314B314D1C7894
:10410000032C53DD304B314D1B780193304B01A80C
:104110001978FFF7E1FF2F4B1B7801932E4B01A875
:104120001978FFF7D9FF2D4B1C78261D019415F83F
:10413000011B01A80134FFF7CFFFB442F6D1284B91
:10414000284D1C78261D019415F8011B01A8013487
:10415000FFF7C2FFB442F6D1234B244D1C78261D35
:10416000019415F8011B01A80134FFF7B5FFB44213
:10417000F6D11F48FDF7DCF81E48FDF7F1F8FFF710
:10418000D9F84FF4FA600FF015F91B4B93ED007A54
:10419000F7EE007AB4EEE77AF1EE10FA0DDC0021CA
:1041A000342002B0BDE870400FF08CB8295D019456
:1041B00001A8FFF791FF0134A2E702B070BD00BF74
:1041C0004E0700203F0000204D0000201008002076
:1041D0003E000020480000204C0700204B0000203B
:1041E0004A0000200C080020490000205808002048
:1041F000E00A0020740A0020E400002070B51E4D83
:104200001E4C2E6846B90FF0D1F81D4B28604FF4B4
:10421000617020601E7070BD0FF0C8F82B682860B8
:10422000C31A5A1FB2F5797F2068F4D2144A157860
:104230004FF47A7195B94FF416656B43B3FBF1F304
:10424000184441F65733984202DC20602068E2E7C8
:1042500041F65833236001231370F7E74FF44865A4
:104260006B43B3FBF1F3C01AB0F5617FEDDC4FF4A3
:10427000617323600023EFE7D817002010010020AE
:10428000DC1700202DE9F84F954F964C3D68BDB9DD
:104290000FF08CF838600FF089F8934B25601860A8
:1042A000924B02221A70924B41F288314FF4FA601D
:1042B0001D600EF09EFE8F4B18602846BDE8F88FFB
:1042C0000FF074F83B683860C31A092B0646206863
:1042D000F4D9894DDFF810A22A68DFF81892834FCD
:1042E00053434FF47A7893FBF8F30344B3F57A5FC2
:1042F000A8BF4FF47A5323EAE3732360DAF800305F
:10430000D9F80020F31A9A4222D864200EF066FEF3
:1043100013283B7845DC032B49D02268B2F5FA7F9D
:104320003FDD4FF0030B40F6B831404687F800B050
:10433000CAF800600EF05DFEC9F8000058460EF0A5
:104340004DFE10BB4FF4E15140460EF052FE286086
:1043500038782268002840F0A480654B1B6893429F
:104360000BDC236002233B702860CAF800604FF426
:10437000FA610EF03EFEC9F800002368002B80F2BF
:10438000A88000232360206898E7012806D14FF415
:10439000E15140460EF02DFE4042D8E700232B604D
:1043A000D6E7012B5DD03DD9023B012BD0D8236845
:1043B000DFF83C81B3F5FA7F10DA00233B704FF44D
:1043C0007A5140F6B8300EF014FEC8F800004FF4F1
:1043D000E1514FF47A700EF00CFE17E002200EF05F
:1043E000FDFD8346C0B9012303203B700EF0F6FDAE
:1043F00018B1216858460EF0FCFDC8F800004FF4D3
:10440000E1514FF47A700EF0F4FD404228604FF411
:10441000FA5140F6B83010E0002320683B704FF4AA
:104420007A51D0E702200EF0D9FD68B90223286046
:104430003B7041F288314FF4FA600EF0DAFDCAF8B1
:104440000060C9F8000083E7012303203B700EF0F1
:10445000C5FD18B1216800200EF0CBFD244B18607B
:10446000CDE72368B3F5FA7F09DA02233B70002316
:1044700023602B604FF4FA614FF4FA70DDE70220FD
:104480000EF0ACFD18B902233B702860F2E7002360
:1044900020683B704FF47A510EF0ABFD144B18605E
:1044A00095E701287FF469AF114B1B689342FFF633
:1044B00064AFB3F5FA7FB8BF0023236002233B70DB
:1044C00000232B60CAF8006041F288314FF4FA6093
:1044D0004FE7B3F57A5F7FF756AF4FF47A5351E762
:1044E000C0170020D4170020C81700200C0100209E
:1044F000D0170020C4170020CC1700202DE9F84366
:10450000604E614D33682DED028B8BBB0EF04EFF7C
:1045100030600EF04BFF5D4B782118605C4B2B60D8
:104520003C200EF066FD07EE900A5A4BF8EEE77A53
:1045300064211420C3ED007A0EF05BFDFBF7E2FF6F
:10454000554B0022FCF772F9FCF728FB534B43F65E
:104550009821186041F288300EF04BFD504B95EDDC
:10456000008A1860B0EE480ABDEC028BBDE8F88303
:104570000EF01CFF0446306895ED008A3460201A66
:104580000928EFD9FBF7AEFF464B444F0022FCF75A
:104590004DF9804638688946FBF7C6FF02460B4650
:1045A00040464946FCF718F8FCF7F8FA07EE900A7F
:1045B00077EE887ABAEE048AF4EEC87AF1EE10FA51
:1045C00008D49FED398AF4EEC87AF1EE10FAD8BF1C
:1045D000B0EE678A2F4E2D4AD6ED007ADFF8C08004
:1045E00085ED008A78EE677AB7EE007AF0EEE77A2A
:1045F000F4EEC77AF1EE10FA05D41368D8F800107B
:10460000E31A9942AED843F6982141F288301460FB
:104610000EF0EFFCC8F8000064200EF0DFFC4A2822
:1046200025DCD2213C200EF0E4FC07EE900AF8EEE7
:10463000E77AC8211420C6ED007A0EF0DAFCFBF709
:1046400061FF154B0022FCF7F1F8FCF7A7FA95ED96
:10465000008A96ED007A07EE900AB4EEC87AF1EE81
:1046600010FAD8BFF1EE677AC7ED007A7AE7022038
:104670000EF0B4FC18B93C216FF00900D3E7E62135
:10468000D220D0E7B817002008010020B41700207E
:104690000000A0410401002000002440BC170020BD
:1046A000B017002000408F40000066432DE9F8431A
:1046B0005C4E5D4D33682DED028BA3BB0EF076FE94
:1046C00030600EF073FE594B4FF4C8711860584BB0
:1046D0002B60C8200EF08DFC07EE900A554BF8EECB
:1046E000E77A40F6B8314FF4FA70C3ED007A0EF075
:1046F00080FCFBF707FF504B0022FCF797F8FCF714
:104700004DFA4E4B42F21071186040F6B8300EF080
:1047100070FC4B4B95ED008A1860B0EE480ABDEC7A
:10472000028BBDE8F8830EF041FE0446306895ED3B
:10473000008A3460201A0928EFD9FBF7D3FE414BD9
:104740003E4F0022FCF772F8804638688946FBF736
:10475000EBFE02460B4640464946FBF73DFFFCF7A1
:104760001DFA07EE900A77EE887AF5EEC07AF1EE40
:1047700010FA53D49FED348AF4EEC87AF1EE10FAB1
:10478000D8BFB0EE678A2B4E284AD6ED007ADFF804
:10479000B08085ED008A78EE677AB1EE047AF0EEAB
:1047A000E77AF4EEC77AF1EE10FA05D41368D8F878
:1047B0000010E31A9942B0D842F2107140F6B830B6
:1047C00014600EF016FC4FF41671C8F800000020BB
:1047D0000EF00FFC07EE900AF8EEE77A40F6B831DB
:1047E0004FF4FA70C6ED007A0EF003FCFBF78AFE78
:1047F000114B0022FCF71AF8FCF7D0F995ED008A6E
:1048000096ED007A07EE900AB4EEC87AF1EE10FA4F
:10481000D8BFF1EE677AC7ED007A7EE79FED0B8A8D
:10482000B1E700BFA817002000010020A417002056
:104830000000C842FC00002000002440AC1700200B
:10484000A017002000408F40000016440000000028
:104850002DE9F8435C4E5D4D33682DED028BA3BB13
:104860000EF0A4FD30600EF0A1FD594B4FF4E17144
:104870001860584B2B60FA200EF0BBFB07EE900A35
:10488000554BF8EEE77A41F270714FF47A70C3ED50
:10489000007A0EF0AEFBFBF735FE504B0022FBF723
:1048A000C5FFFCF77BF94E4B4FF4FA5118604FF4FB
:1048B000FA600EF09EFB4B4B95ED008A1860B0EE4F
:1048C000480ABDEC028BBDE8F8830EF06FFD04468C
:1048D000306895ED008A3460201A0928EFD9FBF77B
:1048E00001FE414B3E4F0022FBF7A0FF8046386897
:1048F0008946FBF719FE02460B4640464946FBF740
:104900006BFEFCF74BF907EE900A77EE887AF5EE2E
:10491000C07AF1EE10FA53D49FED348AF4EEC87ADF
:10492000F1EE10FAD8BFB0EE678A2B4E284AD6EDCA
:10493000007ADFF8B08085ED008A78EE677AB2EE13
:10494000047AF0EEE77AF4EEC77AF1EE10FA05D4C5
:104950001368D8F80010E31A9942B0D84FF4FA510E
:104960004FF4FA6014600EF044FB4FF41671C8F86F
:10497000000000200EF03DFB07EE900AF8EEE77A0B
:1049800041F270714FF47A70C6ED007A0EF031FB8F
:10499000FBF7B8FD114B0022FBF748FFFCF7FEF8D0
:1049A00095ED008A96ED007A07EE900AB4EEC87A8B
:1049B000F1EE10FAD8BFF1EE677AC7ED007A7EE724
:1049C0009FED0B8AB1E700BF98170020F800002088
:1049D0009417002000009643F400002000002440BB
:1049E0009C1700209017002000408F4000001644C4
:1049F000000000002DE9F8435B4E5C4D33682DED5F
:104A0000028B9BBB0EF0D2FC30600EF0CFFC584BFB
:104A1000C8211860574B2B6050200EF0EAFA07EEC1
:104A2000900A554BF8EEE77A41F270714FF47A70C4
:104A3000C3ED007A0EF0DDFAFBF764FD4F4B002268
:104A4000FBF7F4FEFCF7AAF84D4B41F288311860F1
:104A50004FF47A700EF0CDFA4A4B95ED008A18604B
:104A6000B0EE480ABDEC028BBDE8F8830EF09EFC68
:104A70000446306895ED008A3460201A0928EFD981
:104A8000FBF730FD404B3E4F0022FBF7CFFE804648
:104A900038688946FBF748FD02460B4640464946C2
:104AA000FBF79AFDFCF77AF807EE900A77EE887A22
:104AB000F5EEC07AF1EE10FA52D49FED348AF4EE9E
:104AC000C87AF1EE10FAD8BFB0EE678A2A4E284AAB
:104AD000D6ED007ADFF8AC8085ED008A78EE677A53
:104AE000B2EE047AF0EEE77AF4EEC77AF1EE10FA5D
:104AF00005D41368D8F80010E31A9942B0D841F2EF
:104B000088314FF47A7014600EF073FAFA21C8F805
:104B1000000000200EF06DFA07EE900AF8EEE77A3A
:104B200041F270714FF47A70C6ED007A0EF061FABE
:104B3000FBF7E8FC114B0022FBF778FEFCF72EF8A0
:104B400095ED008A96ED007A07EE900AB4EEC87AE9
:104B5000F1EE10FAD8BFF1EE677AC7ED007A7FE781
:104B60009FED0B8AB2E700BF88170020F0000020FD
:104B7000841700200000C842EC0000200000244000
:104B80008C1700208017002000408F4000007A43DF
:104B900000000000002070477047002910B51ADBA4
:104BA000B0F90C408C4216DD002A14DBB0F90E403F
:104BB000944210DD847E022C0ED0032C15D0012CE3
:104BC00004D10489A41A013C0A4621B2012B12D057
:104BD000022B33D003B310BD0489013C611A448910
:104BE000A21A013A09B212B2F0E74489013C641AF0
:104BF000114622B2EAE7002A04891346B8BFD31D42
:104C0000DB1013FB0413C16A02F00700012282408B
:104C1000C85C0243CA54DEE7002A13460489C06A0E
:104C2000B8BFD31DDB1013FB041302F007020121F0
:104C30009140C25C22EA0102C254CCE7002A13462A
:104C40000489C06AB8BFD31DDB1013FB041302F044
:104C50000702012101FA02F2C15C4A40ECE70000C0
:104C600038B504461D4600F0DFFEFF2284F83320ED
:104C700084F834209DF910200F4B84F835209DF9DD
:104C80001820236084F836200C4B9DF9142084F8FA
:104C90003720079A6266002D08BF1D4601220023B7
:104CA000C4E90A33656284F8682084F8693084F8BE
:104CB0006A30204638BD00BFD8860108D0180020D1
:104CC00010B50446C06A08B10EF0B2FB204610BD14
:104CD000826AF8B504460D469AB190F93010104634
:104CE00001F094FAA06A036800211B689847A06A43
:104CF000036829461B689847A06ABDE8F84001F0A0
:104D0000A7BB006C266D036823EA06030360606A94
:104D100018B1BDE8F84001F0FEBFD4E90E23082128
:104D200080201668A76C054214BF3E43BE43166040
:104D30001E68E76C3E431E601E68E76C013926EA78
:104D400007061E604FEA5000EBD1F8BD38B50446A7
:104D5000806A0D4678B1A16D01F036FAA5F15A01CD
:104D60002046C9B2FFF7B4FFA06A88B1E16DBDE883
:104D7000384001F029BA606A18B1D4E9191201F07B
:104D8000A7FF626C616D136823EA01031360E5E716
:104D9000626C616D1368606A0B43136018B1BDE803
:104DA000384001F0B7BF38BD2DE9F0410446806AB4
:104DB0000D468F1840B394F9301001F027FAA06A1D
:104DC000036800211B6898470126AF42A06A03D1FF
:104DD000BDE8F04101F03CBB202E0CD101F038FBC6
:104DE00094F93010A06A01F011FAA06A036800215A
:104DF0001B6898470126A06A15F8011B0368013655
:104E00001B689847B6B2E0E7226C216D136823EA6D
:104E100001031360AF4201D1BDE8F081606A15F86B
:104E2000011B18B1002201F076FFF3E7D4E90E234D
:104E30004FF008088026D2F800C0D4F848E031428C
:104E400014BF4CEA0E0C2CEA0E0CC2F800C0D3F8CA
:104E500000C0E06C4CEA000CC3F800C0D3F800C0FE
:104E6000E06CB8F101082CEA000CC3F800C04FEA6E
:104E70005606E0D1CEE7B0F90A30DA1D48BF03F19B
:104E80000E02B0F90830C06AD2105A4300210FF068
:104E90009BBB00002DE9FF411E46C36A9DF8288098
:104EA00004460F461546B3B12046FFF7E4FFB4F9B8
:104EB0000A00B4F9081020281FDC20230122CDE9C4
:104EC0000132203873237339009300EBD070B14B5B
:104ED00001EBD1711FE0B0F90A30D81D48BF03F1D2
:104EE0000E00B4F90830C01058430EF099FAE06291
:104EF0000028D9D104B0BDE8F08140234FF0010C67
:104F0000CDE9013C5223403852390093A24B00EBCB
:104F1000D07001EBD17140F34F0241F34F012046B5
:104F200000F067FE84F83170A76A002F6BD0002D67
:104F300067D1B4F90A30202B14BF3D253C2584F8F5
:104F40003050B8F1000F03D00021384601F046FB85
:104F5000DEB194F93700002817DB01210EF048F983
:104F6000012194F937000EF0ADF901200EF022FA7C
:104F7000002194F937000EF0A5F90A200EF01AFA74
:104F800094F9370001210EF09DF9A06A002800F085
:104F90008D81A16D01F018F9042280492046FFF7A8
:104FA00003FF61890139C9B22046FFF791FE7C49B0
:104FB00004222046FFF7F8FE94F93130012B14BF8C
:104FC000142110212046FFF783FE04227549204654
:104FD000FFF7EAFE8F23744A84F86030A368934297
:104FE00000F07C8102F50012934240F06C8194F94C
:104FF0003130012B14BFCF239F2384F8603012255A
:105000006DE16DB29BE794F9350001210EF0F0F8E7
:10501000012194F936000EF0EBF894F8351094F96C
:105020003520512910D8614B53F82130C3F30313B5
:10503000082B55D9142323645C4B53F8212002F02C
:105040000F020123934007E002F0C003C02B2AD0D7
:10505000142323644FF4004394F8361094F9362057
:105060002365512945D8514B53F82130C3F303131D
:10507000082B61D9142363644C4B53F8212002F0B0
:105080000F020123934063657A69656A13437B616C
:10509000002D5DD0B8F1000F3FF45AAF0021284633
:1050A00001F000FE54E7CF29D2D8414B02F03F0077
:1050B00053F820003D4B53F82030C3F30313082B63
:1050C0000ED91423236402F0C003C02BC2D1384B85
:1050D00002F03F0253F82220344B53F82220AEE76F
:1050E000344850F82330512903F114032364A3D921
:1050F000E9E702F0C003C02B10D01423636402F070
:10510000C003C02B21D1CF291FD8294B02F03F0269
:1051100053F82220254B53F82220B0E7CF29ECD8B2
:10512000234B02F03F0053F82000204B53F820306F
:10513000C3F30313082BE0D81E4850F823705129FD
:1051400007F11403636497D9D9E74FF400439AE752
:1051500094F9330001210EF04BF8012194F9340049
:105160000EF046F894F8331094F93320512923D8DF
:105170000E4B53F82130C3F30313082B5ED91423CD
:10518000A3630A4B53F8212002F00F02012393403E
:105190001AE000BF4E8701082E8901084A870108DE
:1051A000468701084287010880002000309E0108E0
:1051B000F09D01081003002002F0C003C02B20D096
:1051C0001423A3634FF4004394F8341094F934206B
:1051D000A36451293BD8614B53F82130C3F3031327
:1051E000082B57D91423E3635C4B53F8212002F0BA
:1051F0000F0201239340E3646A6922EA03036B61AF
:10520000A6E6CF29DCD8564B02F03F0053F8200029
:10521000524B53F82030C3F30313082B0ED9142339
:10522000A36302F0C003C02BCCD14D4B02F03F0270
:1052300053F82220494B53F82220A5E7494850F85B
:105240002330512903F11403A3639AD9E9E702F04B
:10525000C003C02B10D01423E36302F0C003C02BA3
:1052600021D1CF291FD83E4B02F03F0253F8222014
:105270003A4B53F82220BAE7CF29ECD8384B02F04A
:105280003F0053F82000354B53F82030C3F303138D
:10529000082BE0D8334850F82350512905F1140366
:1052A000E363A1D9D9E74FF40043A4E7606A18B1DA
:1052B000D4E9191201F00CFD626C616D136823EAE8
:1052C0000103136068E6284A934232D194F93130E1
:1052D000012B14BFAF23102384F860300225DA219C
:1052E0002046FFF7F5FC29462046FFF7F1FC812117
:1052F0002046FFF7EDFC94F860102046FFF7E8FC2D
:10530000D9212046FFF7E4FC94F93130012B14BF7A
:10531000F12122212046FFF7DBFC2046134906221B
:10532000FFF742FDA06A70B1E16D00F04DFF012072
:10533000E0E50F4A9342D1D194F93130012B14BFEB
:10534000CF23102359E6626C616D1368606A0B43CA
:1053500013600028EBD001F0DDFCE8E7309E010887
:10536000F09D010810030020600010003C87010838
:105370004000200070B5002ABDF8105021DBB0F9C4
:105380000A4094421DDD0029BCBFC9180BB2B0F918
:105390000840B8BF0021CE18A642C4BF631A1BB292
:1053A000002B0EDDD61014FB0614C16A02F00700B4
:1053B00001228240012D2144D2B20CD0022D01D015
:1053C00095B170BD0B449942FBD011F8010B5040D0
:1053D00001F8010CF7E70B449942F2D011F8010BE8
:1053E000104301F8010CF7E7D243D2B20B449942C3
:1053F000E7D011F8010B104001F8010CF7E70000AD
:10540000F0B50029BDF8145052DBB0F90870B9426C
:105410004EDA002ABCBF9B181BB2B0F90A40B8BFD5
:105420000022D618A642C4BFA41A23B2002B3FDD27
:10543000C2F3C40616FB0716C76A12F00702DBB2F6
:1054400007EB060419D0C2F10802D2B22E499342EA
:105450003CBF4FF0FF0CA2EB030E895C3CBF4CFA43
:105460000EFC01EA0C01012D23D0022D2CD035B306
:1054700093421DD3B0F908100C449B1ADBB2072BE2
:105480000ED9022D25D11A462178C9432170083A38
:10549000B0F90810D2B2072A0C44F5D803F007037C
:1054A00033B11A4A012DD35C22D0022D28D01DB36E
:1054B000F0BD17F806C041EA0C01B955D8E717F856
:1054C00006C02CEA0101F8E717F806C081EA0C01D2
:1054D000F3E7291E18BF01214942C9B21A462170BB
:1054E000083AB0F90860D2B2072A3444F7D8D5E7B1
:1054F000227813432370DBE7227822EA0303F9E7DB
:1055000022785340F6E700BF348701082C87010852
:1055100030B41446827EBDF80850022A0DD0032A0A
:1055200018D0012A11D10289121B013A14B2029536
:105530000A46214630BCFFF763BF4289121B013A7D
:1055400014B202891944511A09B20295224630BC9C
:10555000FFF710BF42891944511A09B2E7E730B486
:105560001446827EBDF80850022A0DD0032A18D0B6
:10557000012A11D102891C44141B24B202950A4647
:10558000214630BCFFF7F6BE0289521A013A11B229
:1055900042891C44141B24B20295224630BCFFF7FA
:1055A0002FBF4289521A013A11B2E7E72DE9F041C3
:1055B0000446806A00283CD0A16D00F005FE5349E6
:1055C00004222046FFF7F0FBB4F90830402B3DD110
:1055D00020212046FFF77CFB21891F312046C9B2DC
:1055E000FFF776FBB4F90A202689D31DD4E90A0512
:1055F00048BF02F10E03DB1016FB03F615FA86F620
:10560000002842D094F9301000F000FEA06A036830
:1056100040211B6898470127B542A06A1DD100F0C0
:1056200017FFA06A002864D0E16DBDE8F04100F0EA
:10563000CBBD606A18B1D4E9191201F049FB626C64
:10564000616D136823EA01031360B8E70021204667
:10565000FFF73EFB21890139C0E7202F0CD100F074
:10566000F7FE94F93010A06A00F0D0FDA06A03683C
:1056700040211B6898470127A06A15F8011B0368A1
:1056800001371B689847BFB2C6E7226C216D1368CB
:105690000B431360B542C4D0606A15F8011B18B102
:1056A000002201F038FBF5E7D4E90E234FF008089B
:1056B0008027D2F800C0D4F848E0394214BF4CEA41
:1056C0000E0C2CEA0E0CC2F800C0D3F800C0E06C3F
:1056D0004CEA000CC3F800C0D3F800C0E06CB8F18D
:1056E00001082CEA000CC3F800C04FEA5707E0D1CC
:1056F000D0E7626C616D1368606A0B43136018B188
:10570000BDE8F04101F006BBBDE8F0812887010843
:105710002DE9F04F85B01D46BDF93840BDF83C304D
:105720000093A4EB0208A5EB0109B8F1000FB8BF84
:10573000C8F10008B9F1000FB8BFC9F10009C845A8
:10574000174616468246A4462A460B4605DC2246E4
:105750003B462C460F4665463146A74208DC1E46AE
:10576000134632462E460D46314626463C463746BF
:105770009B1A3E1B83EAE372A2EBE372C6F3C033CB
:10578000B0B203FA86F68D42B4BF01234FF0FF3367
:105790000190029276100393BC4202DD05B0BDE891
:1057A000F08FDAF80030C845D3F818B0009BC7BFB7
:1057B000224629462A4621465046D847029BF61AD9
:1057C000B3B236B2002E05DA039A1544019A134497
:1057D0002DB21EB2013424B2DEE7704710B4046863
:1057E0002469A4465DF8044B604730B40468BDF8F2
:1057F00008500295A46BA44630BC604730B40468DE
:10580000BDF808500295E46BA44630BC604770B404
:10581000BDF90C50BDF810600468CDE90356246C46
:10582000A44670BC60472DE9F3411C460368BDF8EF
:1058300020805B6905461646013C34440F4624B27D
:1058400098472B68CDF8048000949C6A28463B4614
:1058500032463946A0472B68DB6A284602B0BDE8CD
:10586000F04118472DE9F3411D460368BDF820803B
:105870005B69044617460E4698472268CDE90078D2
:105880006B1E3344956A20461BB23A463146A84700
:105890002368DB6A204602B0BDE8F04118472DE9D5
:1058A000F3471E460368BDF928805B69BDF82C905C
:1058B0000C460546174698472644B4422B6805DB3C
:1058C000DB6A284602B0BDE8F0471847CDF80090E3
:1058D000D3F820A0214643463A4628460134D04713
:1058E00024B2EAE713B502680191B0F90E100091F5
:1058F000146CB0F90C3000221146A04702B010BD64
:105900002DE9F3471D460368BDF82C805B69BDF99E
:10591000289004460F46164698472368CDF8008025
:10592000D3F824A032462B4639462046D047236878
:10593000CDF8008009F1FF323244D3F824A0394673
:105940002B46204612B2D0472368CDF80080D3F80A
:1059500020A032464B4639462046D047013D2368B9
:10596000CDF80080E91920461D6A32464B4609B23F
:10597000A8472368DB6A204602B0BDE8F047184715
:1059800070472DE9F74399421546BDF92860BDF8E7
:105990002C90026807460C46984611D1B542D8BFF4
:1059A0003346CDF82890DCBF2E461D466B1C956B08
:1059B0009B1B1BB23246AC4603B0BDE8F0436047C8
:1059C000B5420FD19942D8BF1C46CDF82890D66B6E
:1059D000D8BF88460134A4EB080423B22A464146C6
:1059E000B446E9E7536998473B68CDE90069384612
:1059F0009E6A2A4643462146B0473B68DB6A3846E2
:105A000003B0BDE8F043184701F003038376B0F913
:105A10000830B0F90A20C9075EBF194613460A4686
:105A20008281C3817047000030B54281C281074A3C
:105A3000074D0181002481814FF0FF31C0E905123B
:105A40004460056004610477046230BD0101000117
:105A5000F88B01082DE9F04F9FB287B01E46C7F1C1
:105A600001031BB20193C7EBC7335B001BB2049366
:105A70000368BDF840505B690446914688469847E4
:105A80001FFA89F30293236817FA89F2D3F818A052
:105A900012B22B4641462046D0471FFA89F3DA1B43
:105AA000236812B2D3F818A041462B462046D047AF
:105AB0001FFA88F30093236817FA88F1D3F818A027
:105AC0004A462B4609B22046D047009BD91B236883
:105AD0004A469F6909B22B462046B84700230393E4
